:020000021000EC
:10C000000000012095C60100C9C60100CBC6010091
:10C010000000000000000000000000000000000020
:10C02000000000000000000000000000CDC601007C
:10C030000000000000000000CFC60100D1C60100D2
:10C04000D5C60100D7C60100991C020069EA0100AB
:10C0500081EA0100DFC6010065140200E3C60100A9
:10C060005D3C0200753C02008D3C0200EBC6010005
:10C07000EDC60100EFC60100F1C60100F3C60100E4
:10C08000F5C601007D4B0200F9C60100FBC60100A8
:10C09000BD4B0200FFC601007153020003C701003F
:10C0A00005C7010007C70100A53C02000BC701003E
:10C0B0000DC701000FC70100D3C60100D3C60100A0
:10C0C00011C7010013C7010015C7010017C7010000
:08C0D00019C701001BC70100A4
:10C0D80080B400AFBFF34F8F0549054BDB6803F40D
:10C0E800E062044B1343CB60BFF34F8FFEE700BF02
:10C0F80000ED00E00400FA0580B400AF034B044AE9
:10C108001A60BD465DF8047B704700BFD820002048
:10C118000090D00380B500AF00F002F90346002B71
:10C1280006D0784A784B1B6803F460435B0B1360B6
:10C1380000F03CF90346002B05D0744A734BDB68CA
:10C1480023F08073D36000F05BF90346002B0ED018
:10C158004FF080430022C3F80C214FF080430022A7
:10C16800C3F810214FF080430022C3F8382500F0AF
:10C178008DF90346002B02D0654B03221A6000F0AC
:10C18800AFF90346002B76D0624A4FF08053D3F8BC
:10C198000434C2F820355F4A4FF08053D3F808348E
:10C1A800C2F824355B4A4FF08053D3F80C34C2F8F8
:10C1B8002835584A4FF08053D3F81034C2F82C353C
:10C1C800544A4FF08053D3F81434C2F83035514AEA
:10C1D8004FF08053D3F81834C2F834354D4A4FF035
:10C1E8008053D3F81C34C2F840354A4A4FF0805384
:10C1F800D3F82034C2F84435464A4FF08053D3F878
:10C208002434C2F84835434A4FF08053D3F82834D1
:10C21800C2F84C353F4A4FF08053D3F82C34C2F85B
:10C2280050353C4A4FF08053D3F83034C2F8543577
:10C23800384A4FF08053D3F83434C2F86035354A61
:10C248004FF08053D3F83834C2F86435314A4FF090
:10C258008053D3F83C34C2F868352E4A4FF08053E7
:10C26800D3F84034C2F86C352A4A4FF08053D3F8DB
:10C278004434C2F87035284A274BD3F8883043F441
:10C288007003C2F88830BFF34F8FBFF36F8F4FF042
:10C298001023D3F80032002B05DB4FF01023D3F81E
:10C2A8000432002B2BDA1D4B0122C3F8042500BFF2
:10C2B8001A4BD3F80034002BFAD04FF01023152274
:10C2C800C3F8002200BF154BD3F80034002BFAD076
:10C2D8004FF010231522C3F8042200BF0F4BD3F8E8
:10C2E8000034002BFAD00D4B0022C3F8042500BF00
:10C2F8000A4BD3F80034002BFAD0FFF7E9FEFFF71A
:10C30800FBFE80BD3C05004044020010F0ED00E05B
:10C31800A005004000C0004000ED00E000E0014042
:10C3280080B400AF1D4B1B68DBB2062B2FD11C4B12
:10C338001B6803F00F03002B29D11A4B1B6803F06D
:10C34800F003302B07D1184B1B6803F0F003002BC8
:10C3580001D101231CE0134B1B6803F0F003402BB1
:10C3680007D1114B1B6803F0F003002B01D1012307
:10C378000EE00C4B1B6803F0F003502B07D10A4B5F
:10C388001B6803F0F003002B01D1012300E0002318
:10C398001846BD465DF8047B704700BFE00F00F00B
:10C3A800E40F00F0E80F00F0EC0F00F080B400AFED
:10C3B8000F4B1B68DBB2062B13D10E4B1B6803F027
:10C3C8000F03002B0DD10C4B1B6803F0F003302B2F
:10C3D80007D10A4B1B6803F0F003002B01D101239E
:10C3E80000E000231846BD465DF8047B704700BF97
:10C3F800E00F00F0E40F00F0E80F00F0EC0F00F0A1
:10C4080080B400AF1D4B1B68DBB2062B2FD11C4B31
:10C418001B6803F00F03002B29D11A4B1B6803F08C
:10C42800F003302B07D1184B1B6803F0F003002BE7
:10C4380001D101231CE0134B1B6803F0F003402BD0
:10C4480007D1114B1B6803F0F003002B01D1012326
:10C458000EE00C4B1B6803F0F003502B07D10A4B7E
:10C468001B6803F0F003002B01D1012300E0002337
:10C478001846BD465DF8047B704700BFE00F00F02A
:10C48800E40F00F0E80F00F0EC0F00F080B400AF0C
:10C498000F4B1B68DBB2062B13D10E4B1B6803F046
:10C4A8000F03002B0DD10C4B1B6803F0F003302B4E
:10C4B80007D10A4B1B6803F0F003002B01D10123BD
:10C4C80000E000231846BD465DF8047B704700BFB6
:10C4D800E00F00F0E40F00F0E80F00F0EC0F00F0C0
:10C4E80080B400AF0F4B1B68DBB2062B13D10E4B89
:10C4F8001B6803F00F03002B0DD10C4B1B6803F0D6
:10C50800F003502B07D10A4B1B6803F0F003002BF4
:10C5180001D1012300E000231846BD465DF8047BE5
:10C52800704700BFE00F00F0E40F00F0E80F00F0E4
:10C53800EC0F00F0354936480A1A02D00722914319
:10C548008D46344934480A1A06D00722914381F3AC
:10C558000988022282F3148830483149314A00F0B0
:10C5680043F831483149324A00F03EF831483249FF
:10C57800324A00F039F832483249334A00F034F888
:10C5880032483349334A00F02FF833483349344AA4
:10C5980000F02AF833483449344A00F025F8344882
:10C5A8003449002200F02BF833483449002200F0C7
:10C5B80026F833483349091A082903DB00220260A8
:10C5C800043001601F482049884205D002680430C1
:10C5D80003B4904703BCF7E700208646EC460020EA
:10C5E8000021294A9047FEE7884207D0521A05D011
:10C5F800037801300B700131013AF9D17047884254
:10C6080002D002700130FAE77047000000000120F4
:10C6180000F80020000001200000012054650200FD
:10C6280080200020DC2000201CC701001CC701005E
:10C63800186102005465020080200020802000203C
:10C6480018610200186102001861020018610200F6
:10C6580018610200186102001861020018610200E6
:10C6680054650200B0650200DC200020DC200020B8
:10C67800DC200020782E0020782E0020782E002044
:10C68800782E0020782F00202DD401000848094971
:10C6980088438546084880470848016841F4700186
:10C6A8000160BFF34F8FBFF36F8FFFF743BF0000E9
:10C6B80000000120070000001DC1010088ED00E016
:10C6C800FEE7FEE7FEE7FEE7FEE7FEE7FEE7FEE73A
:10C6D800FEE7FEE7FEE7FEE7FEE7FEE7FEE7FEE72A
:10C6E800FEE7FEE7FEE7FEE7FEE7FEE7FEE7FEE71A
:10C6F800FEE7FEE7FEE7FEE7FEE7FEE7FEE7FEE70A
:10C70800FEE7FEE7FEE7FEE7FEE7FEE7FEE7FEE7F9
:04C71800FEE7FEE753
:10C71C0080B483B000AF7860084611461A460346D1
:10C72C00FB700B46BB7013467B704FF0A041FA7840
:10C73C00BB785B001A437B789B001A433B7C1B0243
:10C74C001A433B7D1B041A437B6803F5E07341F8E5
:10C75C0023200C37BD465DF8047B704780B584B050
:10C76C0002AF7860002300930023019378680121C5
:10C77C0001220023FFF7CCFF0837BD4680BD00BF68
:10C78C0080B483B000AF78604FF0A0427B68012189
:10C79C0001FA03F3C2F808350C37BD465DF8047B8B
:10C7AC00704700BF80B483B000AF78604FF0A042F8
:10C7BC007B68012101FA03F3C2F80C350C37BD4636
:10C7CC005DF8047B704700BF70DF7047184600BFF0
:10C7DC0071DF7047184600BF73DF7047184600BF03
:10C7EC0076DF7047184600BF7ADF7047184600BFE7
:10C7FC007CDF7047184600BF7FDF7047184600BFCC
:10C80C00A9DF7047184600BF48DF7047184600BFC5
:10C81C0080B582B000AF0346FB71FB79FA2B07D1D0
:10C82C003D4B1B78002B03D03C4B00221A7010E0C0
:10C83C00FB79FA2B0AD1384B1B7883F00103DBB25E
:10C84C00002B03D0354B01221A7002E0334AFB79DE
:10C85C001370324B1B78012B16D0012B02DC002BF2
:10C86C0005D032E0022B1CD0642B24D02DE02C4BB5
:10C87C0000221A702B4B64221A702B4B00221A7058
:10C88C00254B01221A7020E0254B64221A70254B8F
:10C89C0000221A70244B00221A701F4B00221A70AF
:10C8AC0013E01F4B64221A701E4B64221A701E4B2D
:10C8BC0064221A7009E01A4B64221A70194B642214
:10C8CC001A70194B00221A7000BF00BF144B1B7852
:10C8DC009BB2164801211A4606F034F80346112B78
:10C8EC00F4D000BF0F4B1B789BB2104800211A46A6
:10C8FC0006F028F80346112BF4D000BF0A4B1B7826
:10C90C009BB20B4800211A4606F01CF80346112B6B
:10C91C00F4D00837BD4680BD682100206721002077
:10C92C006421002065210020662100202461020082
:10C93C003461020080B400AF0A4B1B78002B03D18A
:10C94C00084B01221A7005E0064B1B780133DAB252
:10C95C00044B1A70034B1B781846BD465DF8047BDC
:10C96C00704700BFFA20002080B582B000AF0023D2
:10C97C00FB710CE0FB790C331846FFF7EFFEFB79EB
:10C98C000C331846FFF70EFFFB790133FB71FB7973
:10C99C00002BEFD01120FFF7E1FE1220FFF7DEFE97
:10C9AC001320FFF7DBFE1420FFF7D8FE1120FFF752
:10C9BC00E7FE1220FFF7E4FE1320FFF7E1FE142040
:10C9CC00FFF7DEFE0320FFF7C9FE0320FFF7EAFEA8
:10C9DC000837BD4680BD00BF80B586B000AF0346AA
:10C9EC00FB8000237B618BE00320FFF7C9FEFB88F3
:10C9FC00FB60FB681846013800BF00BF00BF00BFDA
:10CA0C0000BF00BF00BF00BF00BF00BF00BF00BF22
:10CA1C0000BF00BF00BF00BF00BF00BF00BF00BF12
:10CA2C0000BF00BF00BF00BF00BF00BF00BF00BF02
:10CA3C0000BF00BF00BF00BF00BF00BF00BF00BFF2
:10CA4C0000BF00BF00BF00BF00BF00BF00BF00BFE2
:10CA5C0000BF00BF00BF00BF00BF00BF00BF00BFD2
:10CA6C0000BF00BF00BF00BF00BF00BFC3D1032089
:10CA7C00FFF798FEFB883B613B691846013800BF05
:10CA8C0000BF00BF00BF00BF00BF00BF00BF00BFA2
:10CA9C0000BF00BF00BF00BF00BF00BF00BF00BF92
:10CAAC0000BF00BF00BF00BF00BF00BF00BF00BF82
:10CABC0000BF00BF00BF00BF00BF00BF00BF00BF72
:10CACC0000BF00BF00BF00BF00BF00BF00BF00BF62
:10CADC0000BF00BF00BF00BF00BF00BF00BF00BF52
:10CAEC0000BF00BF00BF00BF00BF00BF00BF00BF42
:10CAFC0000BFC3D1FB885B001A467B6913447B6182
:10CB0C007B694CF24F3293427FF66EAF1837BD46BD
:10CB1C0080BD00BF80B582B000AF0F200421094A50
:10CB2C00002308F04BF878607B683B603B68002B77
:10CB3C0004D03868DA21044A07F004F90837BD46F6
:10CB4C0080BD00BF6C2100203C610200B0B58EB0EE
:10CB5C0000AF204B07F118041D460FCD0FC42B68F6
:10CB6C0023601D4B3C1D1D460FCD0FC42B6823604D
:10CB7C0001233B7307F1180318481946002205F0EE
:10CB8C00E7FF78637B6B3B633B6B002B04D0386B0C
:10CB9C00F021134A07F0D6F83B1D12481946002223
:10CBAC0005F0D6FF78637B6BFB62FB6A002B04D02D
:10CBBC00F86AF3210A4A07F0C5F8084806F018F994
:10CBCC00084806F015F96420FFF722FE3837BD46F9
:10CBDC00B0BD00BFA0610200B4610200246102007C
:10CBEC003C6102003461020080B586B000AF3B7836
:10CBFC00012262F303033B703B78012262F30713BB
:10CC0C003B701C4809F052FA03469BB23A46104658
:10CC1C0018491A46FFF7ECFD78617B693B613B696B
:10CC2C00002B05D0386940F20B11134A07F08AF833
:10CC3C003B1D18460021082209F0E6F91023BB80A1
:10CC4C002823FB8000233B814FF4C8737B813B1D61
:10CC5C001846FFF7C9FD78617B69FB60FB68002B08
:10CC6C0005D0F86840F21511034A07F06BF8183735
:10CC7C00BD4680BDC86102003C61020080B5A0B019
:10CC8C0000AF41F22353BB801A4B9B7CBB7107F165
:10CC9C00400318460021382209F0B6F9022387F820
:10CCAC004030012387F84230062387F8433007F1E0
:10CCBC00080318460021382209F0A6F901233B830A
:10CCCC003B1DFB6107F1400207F1080310461946B2
:10CCDC0003F0E0FAF867FB6FBB67BB6F002B05D066
:10CCEC00B86F40F23511044A07F02CF88037BD4676
:10CCFC0080BD00BFDC2000203C61020080B584B008
:10CD0C0000AF78603960386800F048FE386805215B
:10CD1C0000F0E8FF0346BB73BB7B1846FFF778FDBA
:10CD2C000023FB734CE0FB7B386801211A4600F0B2
:10CD3C00BFFF0346002B29D0FB7B002B1DD102200B
:10CD4C00FFF766FD4FF40670FFF746FE322003F046
:10CD5C000FFD00BF1D480121322205F0F3FD0346F3
:10CD6C00112BF7D04FF40670FFF736FE322003F08C
:10CD7C00FFFCFA20FFF74CFD1FE0FB7B012B1CD1C5
:10CD8C00FB7B0C331846FFF7FBFC16E038680121DF
:10CD9C00002200F08DFF0346002B09D100BF0B4889
:10CDAC000121002205F0CEFD0346112BF7D004E043
:10CDBC00FB7B0C331846FFF7F5FCFB7B0133FB7355
:10CDCC00FB7B002BAFD01037BD4680BD3461020019
:10CDDC0080B584B000AF0B4B7B603B1D0A481946F5
:10CDEC0001F0D8FFF860FB68BB60BB68002B05D076
:10CDFC00B8684FF4B571054A06F0A4FF1037BD466C
:10CE0C0080BD00BF09CD0100DC2000203C61020088
:10CE1C0080B584B000AF78607B681B78002B11D193
:10CE2C000A4B1B8818463B21FFF7DAFCF860FB68BD
:10CE3C00BB60BB68002B05D0B8684FF4C071044AC6
:10CE4C0006F080FF1037BD4680BD00BF802000205B
:10CE5C003C61020080B582B000AF7860786840F227
:10CE6C008B11034A06F06EFF0837BD4680BD00BF2C
:10CE7C003C61020080B58AB000AF3B1D1846002112
:10CE8C001C2209F0C1F800237B604FF42043BB60E7
:10CE9C004FF42053FB6003233B7400237B8200235D
:10CEAC003B750B4BBB610B4BFB613B1D184603F0F9
:10CEBC0007FB78627B6A3B623B6A002B05D0386AC1
:10CECC004FF4D171044A06F03DFF2837BD4680BDB2
:10CEDC001DCE010061CE01003C61020080B588B01E
:10CEEC0000AF3B4618460021182209F08DF80023AC
:10CEFC003B7000237B6000233B7240233B8200236A
:10CF0C007B823B461846FFF767FCF861FB69BB6107
:10CF1C00BB69002B05D0B86940F2B711044A06F082
:10CF2C0011FF1220FFF73EFC2037BD4680BD00BF2D
:10CF3C003C61020080B582B000AF78601A4B1B7860
:10CF4C0083F00103DBB2002B27D0184B1B7803F0C6
:10CF5C000103DBB2002B02D100F096FA01E0FFF7DF
:10CF6C008DFE124B1B780133DAB2104B1A700F4B3B
:10CF7C001B7803F00103DBB2002B0AD10A4B1B78A0
:10CF8C0083F00103DBB2002B03D01220FFF70AFC65
:10CF9C0006E01220FFF7F4FB02E01220FFF7F0FB93
:10CFAC000837BD4680BD00BFF82000206921002055
:10CFBC0080B588B000AF78607B681B88112B22D0BD
:10CFCC00112B02DC102B05D066E0132B38D0522B22
:10CFDC004CD061E01120FFF7E5FB7B689A88304B61
:10CFEC001A8006F065FEF861FB69BB61BB69002B1A
:10CFFC0005D0B8694FF4F4712A4A06F0A3FE2A4B07
:10D00C0001221A7048E01120FFF7BAFB244B4FF6AF
:10D01C00FF721A8006F06EFEF861FB697B617B691A
:10D02C00002B05D078694FF4F9711E4A06F08AFE80
:10D03C001D4B00221A70FFF751FF00F039FC2BE05A
:10D04C00174B1B881846852100220023FFF7D4FBC1
:10D05C00F861FB693B613B69002B06D0386940F2F3
:10D06C00FF11104A06F06EFE16E015E00C4B1B8803
:10D07C001846002100220023FFF7C2FBF861FB6970
:10D08C00FB60FB68002B06D0F86840F20521054ACE
:10D09C0006F058FEFFE700BF2037BD4680BD00BF3D
:10D0AC00802000203C610200F820002080B582B076
:10D0BC0000AF78607868FFF77BFF786803F032FB8D
:10D0CC000348796801F02CFD0837BD4680BD00BFD0
:10D0DC00DC20002080B592B000AF404A07F11C0361
:10D0EC001068186007F11C0318463D4948220023BC
:10D0FC0008F0E0F878647B6C3B643B6C002B05D04B
:10D10C00386C4FF40971374A06F01CFE07F108031E
:10D11C00002001211A4608F047F9F863FB6BBB634A
:10D12C00BB6B002B05D0B86B40F229212D4A06F0C1
:10D13C0009FE2D4B7B63786B08F07EF9F863FB6B73
:10D14C003B633B6B002B05D0386B4FF40B71254ABE
:10D15C0006F0F8FD07F10803184608F097F9F86394
:10D16C00FB6BFB62FB6A002B05D0F86A4FF40C7169
:10D17C001C4A06F0E7FD3B461846FFF729FBF8630F
:10D18C00FB6BBB62BB6A002B05D0B86A40F2352141
:10D19C00144A06F0D7FD3B4600201946FFF714FB56
:10D1AC00F863FB6B7B627B6A002B05D0786A40F2DC
:10D1BC0037210C4A06F0C6FD0C4808F0BDF8F863A0
:10D1CC00FB6B3B623B6A002B05D0386A40F23B217B
:10D1DC00044A06F0B7FD4837BD4680BDD461020055
:10D1EC00EC2200203C610200E81F0020B9D00100B5
:10D1FC0080B582B000AF78600B46FB707B680D2B5E
:10D20C0005D07B680E2B02D07B680F2B32D1FFF739
:10D21C0091FB03461A463A4B1A7040F2EC50FFF75A
:10D22C00DBFB322003F0A4FA40F24760FFF7D4FB9B
:10D23C007B680D2B07D1324B1B78324819460022E4
:10D24C0001F0FAFD15E07B680E2B07D12C4B1B78F7
:10D25C002C481946012201F0EFFD0AE07B680F2BE8
:10D26C0007D1274B1B7827481946022201F0E4FD11
:10D27C0043E042E07B68102B3FD100F0CDF9034630
:10D28C001A46214B1A70204B1B781E481946042253
:10D29C0001F0D2FD1C4B1A781C4BA3FB021319098D
:10D2AC000B469B000B449B00D31ADBB2002B24D102
:10D2BC004FF48660FFF790FB0220FFF7A9FA0A20D3
:10D2CC0003F056FA4FF47D70FFF786FB0120FFF751
:10D2DC009FFA0A2003F04CFA40F2BB30FFF77CFBBC
:10D2EC000220FFF795FA0A2003F042FA40F285304B
:10D2FC00FFF772FB0020FFF78BFA0837BD4680BDA5
:10D30C00FA200020DC200020F9200020CDCCCCCC51
:10D31C0080B584B000AF03F0F1FE034683F0010347
:10D32C00DBB2002B02D003F0B1FEF860FB68BB60EF
:10D33C00BB68002B05D0B86840F26E21204A06F07D
:10D34C0001FD03233B7100237B710023BB71002380
:10D35C00FB7100237B7103233B7000237B70002344
:10D36C00BB700023FB7001237B703B1D0D20194605
:10D37C00144A03F083FF3B1D0E201946114A03F09B
:10D38C007DFF3B1D0F2019460E4A03F077FF3B46ED
:10D39C00102019460B4A03F071FF0D20012103F0F8
:10D3AC00C7FF0E20012103F0C3FF0F20012103F062
:10D3BC00BFFF1020012103F0BBFF1037BD4680BD1D
:10D3CC003C610200FDD1010080B500AF064801218F
:10D3DC00064A07F06FFC064B184640F26621002205
:10D3EC0007F0B6FC80BD00BF1861020041CF010000
:10D3FC00FC20002080B582B000AFFFF705FA786002
:10D40C007B683B603B68002B05D0386840F28E216E
:10D41C00024A06F097FC0837BD4680BD3C6102000D
:10D42C0080B500AFFFF774FFFFF79EFAFFF78EFB96
:10D43C00FFF770FBFFF74EFEFFF7D6FBFFF7C8FCBC
:10D44C00FFF71CFCFFF716FDFFF7BEFFFFF746FDCD
:10D45C0000F040F900F0FEF80020FFF7D9F940F297
:10D46C004760FFF7B9FA1E2003F082F940F2EC5046
:10D47C00FFF7B2FA1E2003F07BF940F29750FFF74A
:10D48C00ABFAFFF7B7FFFCE780B598B000AF062307
:10D49C0087F85F301E4A07F11803106818601D4B9F
:10D4AC007B6110233B824FF6AA63BB8007F1080314
:10D4BC0007F1100292E8030083E8030007F11C0354
:10D4CC0018460021382208F09FFD00233B7797F87F
:10D4DC005F30FB770123BB8507F118033B633B1DD2
:10D4EC007B64012387F8483007F11C0318460021A0
:10D4FC0002F0D0FEB865BB6D7B657B6D002B04D054
:10D50C00786D3721044A06F01DFC6037BD4680BD9E
:10D51C004462020084200020D861020080B483B0F1
:10D52C0000AF78604FF0A0427B68012101FA03F351
:10D53C00C2F808350C37BD465DF8047B704700BF58
:10D54C0080B483B000AF78604FF0A0427B680121BB
:10D55C0001FA03F3C2F80C350C37BD465DF8047BB9
:10D56C00704700BF80B582B002AF002300932548FE
:10D57C002421254A092301F079F9032003F0F8F856
:10D58C0020482421214A072301F09EF9032003F0AF
:10D59C00EFF81C4824211D4A0E2301F095F90320B5
:10D5AC0003F0E6F80023009316482421184A0C23B4
:10D5BC0001F05CF9032003F0DBF812482421134A34
:10D5CC00072301F081F9032003F0D2F80D48242140
:10D5DC000E4A092301F078F9032003F0C9F800235F
:10D5EC000093084824210B4A0B2301F03FF9032038
:10D5FC0003F0BEF803482421044A072301F064F920
:10D60C00BD4680BD486202009420002034230020D7
:10D61C00A0200020AC20002080B500AF1420FFF724
:10D62C008FFFFFF79FFF0A4B1B78002B03D1084B92
:10D63C0001221A7005E0064B1B780133DAB2044B59
:10D64C001A701420FFF76AFF014B1B78184680BD37
:10D65C00F920002090B585B000AF0A4B3C460FCBAB
:10D66C0084E80F003B46084819460022002300F0CE
:10D67C00C9FD054800F040FEFFF774FF1437BD46A6
:10D68C0090BD00BF506202004862020080B483B0BB
:10D69C0000AF78604FF0A0427B68012101FA03F3E0
:10D6AC00C2F808350C37BD465DF8047B704700BFE7
:10D6BC0080B483B000AF78604FF0A0427B6801214A
:10D6CC0001FA03F3C2F80C350C37BD465DF8047B48
:10D6DC00704700BF90B585B000AF0A4B3C460FCBEE
:10D6EC0084E80F003B46084819460022002300F04E
:10D6FC0089FD054800F000FE00F008F81437BD461F
:10D70C0090BD00BF686202006062020080B58AB002
:10D71C0002AF00233B7700237B7700233B76624AE2
:10D72C0007F110031068516803C307F11C020023B2
:10D73C0000935E486021022301F098F807F118026B
:10D74C000023009359486021012301F08FF8132026
:10D75C00FFF7AEFF0123FB7307F10F035348602162
:10D76C001A46012301F0B0F805237B607B6818464C
:10D77C00013800BF00BF00BF00BF00BF00BF00BF2B
:10D78C0000BF00BF00BF00BF00BF00BF00BF00BF95
:10D79C0000BF00BF00BF00BF00BF00BF00BF00BF85
:10D7AC0000BF00BF00BF00BF00BF00BF00BF00BF75
:10D7BC0000BF00BF00BF00BF00BF00BF00BF00BF65
:10D7CC0000BF00BF00BF00BF00BF00BF00BF00BF55
:10D7DC0000BF00BF00BF00BF00BF00BF00BF00BF45
:10D7EC0000BF00BF00BFC3D1FB7B002BB4D1132003
:10D7FC00FFF74CFF0023FB770EE0FB7F07F11002D5
:10D80C005B001A440023009328486021022301F096
:10D81C002DF8FB7F0133FB77FB7F032BEDD9142312
:10D82C00BB60BB681846013800BF00BF00BF00BF1B
:10D83C0000BF00BF00BF00BF00BF00BF00BF00BFE4
:10D84C0000BF00BF00BF00BF00BF00BF00BF00BFD4
:10D85C0000BF00BF00BF00BF00BF00BF00BF00BFC4
:10D86C0000BF00BF00BF00BF00BF00BF00BF00BFB4
:10D87C0000BF00BF00BF00BF00BF00BF00BF00BFA4
:10D88C0000BF00BF00BF00BF00BF00BF00BF00BF94
:10D89C0000BF00BF00BF00BF00BF00BFC3D100F07E
:10D8AC0007F82037BD4680BD786202006062020036
:10D8BC0090B58BB002AF00233B7600237B76002320
:10D8CC00BB760023FB7600233B77324B07F1080431
:10D8DC00186859689A68DB680FC40023FB7752E01C
:10D8EC00FB7F07F12002134413F8183C3B7607F139
:10D8FC0018020023009328486021052300F0B6FF8E
:10D90C0005237B607B681846013800BF00BF00BF51
:10D91C0000BF00BF00BF00BF00BF00BF00BF00BF03
:10D92C0000BF00BF00BF00BF00BF00BF00BF00BFF3
:10D93C0000BF00BF00BF00BF00BF00BF00BF00BFE3
:10D94C0000BF00BF00BF00BF00BF00BF00BF00BFD3
:10D95C0000BF00BF00BF00BF00BF00BF00BF00BFC3
:10D96C0000BF00BF00BF00BF00BF00BF00BF00BFB3
:10D97C0000BF00BF00BF00BF00BF00BF00BFC3D1CE
:10D98C00FB7F0133FB77FB7F0F2BA9D92437BD46D7
:10D99C0090BD00BF8062020060620200F0B585B0ED
:10D9AC0000AF78601320FFF783FE0023FB733FE08A
:10D9BC00FA7B244913465B0013445B000B445D78EF
:10D9CC00FA7B204913465B0013445B000B449C78A4
:10D9DC00FA7B1C4913465B0013445B000B441B7918
:10D9EC0078680E211A4600F063F903461E46FB7B4D
:10D9FC00284621461A46334600F04EF8FA7B114968
:10DA0C0013465B0013445B000B441878FA7B0D49FA
:10DA1C0013465B0013445B000B44DB781A467B68AF
:10DA2C0013441B78194600F00FF8FB7B0133FB7392
:10DA3C00FB7B032BBCD91320FFF728FE1437BD4604
:10DA4C00F0BD00BFB820002080B586B002AF034601
:10DA5C000A46FB711346BB71FB793B7200237B7248
:10DA6C000023BB720023FB7200233B73BB791B01A9
:10DA7C00DBB2FB72BB791B09DBB23B7307F108020B
:10DA8C000023009303486021052300F0EFFE1037BC
:10DA9C00BD4680BD6062020090B58FB002AF0446F7
:10DAAC00084611461A462346FB710346BB710B46CA
:10DABC007B7113463B717A797B4913465B001344A7
:10DACC005B000B445B793A799A4200F0EA807A79F0
:10DADC00754913465B0013445B000B445B79002BC8
:10DAEC0070D1BB7987F82830002387F829300023C0
:10DAFC0087F82A30002387F82B30002387F82C3046
:10DB0C00FB7987F82030002387F82130102387F821
:10DB1C002230002387F82330002387F8243007F1C4
:10DB2C0028020023009361486021052300F09EFE2B
:10DB3C000523FB61FB691846013800BF00BF00BF1D
:10DB4C0000BF00BF00BF00BF00BF00BF00BF00BFD1
:10DB5C0000BF00BF00BF00BF00BF00BF00BF00BFC1
:10DB6C0000BF00BF00BF00BF00BF00BF00BF00BFB1
:10DB7C0000BF00BF00BF00BF00BF00BF00BF00BFA1
:10DB8C0000BF00BF00BF00BF00BF00BF00BF00BF91
:10DB9C0000BF00BF00BF00BF00BF00BF00BF00BF81
:10DBAC0000BF00BF00BF00BF00BF00BF00BFC3D19C
:10DBBC0007F12002002300933C486021052300F06C
:10DBCC0055FE65E0FB793B7500237B750023BB7527
:10DBDC000023FB7500233B76BB793B7300237B73DF
:10DBEC001023BB730023FB7300233B7407F1140257
:10DBFC00002300932D486021052300F037FE0523F8
:10DC0C00BB60BB681846013800BF00BF00BF00BF37
:10DC1C0000BF00BF00BF00BF00BF00BF00BF00BF00
:10DC2C0000BF00BF00BF00BF00BF00BF00BF00BFF0
:10DC3C0000BF00BF00BF00BF00BF00BF00BF00BFE0
:10DC4C0000BF00BF00BF00BF00BF00BF00BF00BFD0
:10DC5C0000BF00BF00BF00BF00BF00BF00BF00BFC0
:10DC6C0000BF00BF00BF00BF00BF00BF00BF00BFB0
:10DC7C0000BF00BF00BF00BF00BF00BFC3D107F192
:10DC8C000C020023009309486021052300F0EEFDEF
:10DC9C007A79054913465B0013445B000B443A79CF
:10DCAC005A713437BD4690BDB82000206062020026
:10DCBC0080B483B000AF78600B46FB701346BB702A
:10DCCC00FB787A6813441A78BB780549CB5C13400F
:10DCDC00DBB218460C37BD465DF8047B704700BFBD
:10DCEC00D020002080B483B000AF78600B46FB706E
:10DCFC00FB787A6813441B7818460C37BD465DF8E0
:10DD0C00047B704780B483B000AF78600B46FB7027
:10DD1C00FB787A68134401221A600C37BD465DF813
:10DD2C00047B704780B483B000AF78600B467B8077
:10DD3C007B887A68134400221A600C37BD465DF864
:10DD4C00047B704780B483B000AF78600B467B8057
:10DD5C007B887A6813441B68002B14BF01230023B3
:10DD6C00DBB218460C37BD465DF8047B704700BF2C
:10DD7C0080B483B000AF786039607B683A68C3F8D0
:10DD8C0004230C37BD465DF8047B704780B483B028
:10DD9C0000AF786039607B683A68C3F808230C37A9
:10DDAC00BD465DF8047B704780B483B000AF7860EB
:10DDBC007B680522C3F800250C37BD465DF8047B53
:10DDCC00704700BF80B485B000AFF860B9607A606E
:10DDDC00FB68BA68C3F80825FB687A68C3F80C2599
:10DDEC001437BD465DF8047B704700BF80B483B028
:10DDFC0000AF786039607B683A68C3F824250C372B
:10DE0C00BD465DF8047B704780B485B000AF786088
:10DE1C007B68D3F8C434FB607B68FA68C3F8C4240D
:10DE2C00FB6818461437BD465DF8047B704700BF8D
:10DE3C0080B483B000AF78600B46FB70FA787B68D7
:10DE4C00C3F888250C37BD465DF8047B704700BFCE
:10DE5C0080B483B000AF78607B68D3F81835DBB240
:10DE6C0018460C37BD465DF8047B704780B483B010
:10DE7C0000AF78600B46FB70FA787B68C3F81C2502
:10DE8C000C37BD465DF8047B704700BF80B483B08F
:10DE9C0000AF786039607B683A68C3F800220C37B1
:10DEAC00BD465DF8047B704780B485B000AF7860E8
:10DEBC007B681B0BFB73FB7B5BB218461437BD46B0
:10DECC005DF8047B704700BF80B483B000AF78600E
:10DEDC004FF0A0427B68012101FA03F3C2F8083528
:10DEEC000C37BD465DF8047B704700BF80B483B02F
:10DEFC0000AF78604FF0A0427B68012101FA03F378
:10DF0C00C2F80C350C37BD465DF8047B704700BF7A
:10DF1C0080B483B000AF78604FF0A043D3F81025E5
:10DF2C007B6822FA03F303F0010318460C37BD4655
:10DF3C005DF8047B704700BF80B588B000AF786097
:10DF4C0039604FF0A0423B681B6803F5E07340F268
:10DF5C000C6142F823104FF0A0423B685B6803F55C
:10DF6C00E07340F20C6142F823103B681B681846C2
:10DF7C00FFF7AAFF3B685B681846FFF7A5FF4FF059
:10DF8C00A0423B681B6803F5E07340F20D6142F858
:10DF9C0023104FF0A0423B685B6803F5E07340F23E
:10DFAC000D6142F8231004237B617B69184601380C
:10DFBC0000BF00BF00BF00BF00BF00BF00BF00BF5D
:10DFCC0000BF00BF00BF00BF00BF00BF00BF00BF4D
:10DFDC0000BF00BF00BF00BF00BF00BF00BF00BF3D
:10DFEC0000BF00BF00BF00BF00BF00BF00BF00BF2D
:10DFFC0000BF00BF00BF00BF00BF00BF00BF00BF1D
:10E00C0000BF00BF00BF00BF00BF00BF00BF00BF0C
:10E01C0000BF00BF00BF00BF00BF00BF00BF00BFFC
:10E02C0000BF00BFC3D10023FB6199E03B685B6874
:10E03C001846FFF76DFF0346002B04D0FB69002B3D
:10E04C0000D1DBE090E03B681B681846FFF74EFF01
:10E05C000423FB60FB681846013800BF00BF00BFFB
:10E06C0000BF00BF00BF00BF00BF00BF00BF00BFAC
:10E07C0000BF00BF00BF00BF00BF00BF00BF00BF9C
:10E08C0000BF00BF00BF00BF00BF00BF00BF00BF8C
:10E09C0000BF00BF00BF00BF00BF00BF00BF00BF7C
:10E0AC0000BF00BF00BF00BF00BF00BF00BF00BF6C
:10E0BC0000BF00BF00BF00BF00BF00BF00BF00BF5C
:10E0CC0000BF00BF00BF00BF00BF00BF00BFC3D177
:10E0DC003B681B681846FFF7F7FE04233B613B695E
:10E0EC001846013800BF00BF00BF00BF00BF00BF13
:10E0FC0000BF00BF00BF00BF00BF00BF00BF00BF1C
:10E10C0000BF00BF00BF00BF00BF00BF00BF00BF0B
:10E11C0000BF00BF00BF00BF00BF00BF00BF00BFFB
:10E12C0000BF00BF00BF00BF00BF00BF00BF00BFEB
:10E13C0000BF00BF00BF00BF00BF00BF00BF00BFDB
:10E14C0000BF00BF00BF00BF00BF00BF00BF00BFCB
:10E15C0000BF00BF00BF00BFC3D1FB690133FB612F
:10E16C00FB69082B7FF762AF3B685B681846FFF7CB
:10E17C00BDFE0423BB61BB691846013800BF00BF5C
:10E18C0000BF00BF00BF00BF00BF00BF00BF00BF8B
:10E19C0000BF00BF00BF00BF00BF00BF00BF00BF7B
:10E1AC0000BF00BF00BF00BF00BF00BF00BF00BF6B
:10E1BC0000BF00BF00BF00BF00BF00BF00BF00BF5B
:10E1CC0000BF00BF00BF00BF00BF00BF00BF00BF4B
:10E1DC0000BF00BF00BF00BF00BF00BF00BF00BF3B
:10E1EC0000BF00BF00BF00BF00BF00BF00BF00BF2B
:10E1FC00C3D13B685B681846FFF766FE2037BD4607
:10E20C0080BD00BF80B586B000AFF860B9607A60A1
:10E21C003B60FB681B791A4613469B001344DB00DA
:10E22C00334A13447B617B6993F82230002B01D075
:10E23C00082359E0BB68002B05D1FB681B791B0137
:10E24C002C4A1344BB607B697A681A607B693A6814
:10E25C005A607B6900229A607B69002283F8252032
:10E26C007B69002283F82420F868B968FFF764FE04
:10E27C004FF0A042BB681B6803F5E07340F20C61E1
:10E28C0042F823104FF0A042BB685B6803F5E073C3
:10E29C0040F20C6142F82310FB681B683B61BB68C1
:10E2AC001A68BB685B68386911461A46FFF78AFD25
:10E2BC00BB689B6838691946FFF798FD7B691B683A
:10E2CC00002B0CD0FB681B681846FFF7EDFD0346CE
:10E2DC001A46BB681B7B1046194602F0F7FA7B699D
:10E2EC00012283F82220002318461837BD4680BD32
:10E2FC00742300209062020080B584B000AF786077
:10E30C007B681B791A4613469B001344DB00084AB2
:10E31C001344FB607B681B68BB60B868FFF744FD67
:10E32C00FB68022283F822201037BD4680BD00BF57
:10E33C007423002080B584B000AFF860B9603B60F6
:10E34C001346FB713B681B78FA799A4210D93B68EB
:10E35C001B781A46BB6813441B78F8681946FFF7FC
:10E36C0085FD3B681B780133DAB23B681A700CE010
:10E37C003B7E002B05D0F8681C21FFF7C3FC002363
:10E38C0004E0F8681421FFF7BDFC01231846103790
:10E39C00BD4680BD90B585B000AFF860B9603B60FC
:10E3AC001346FB713B681B78FA799A4225D93B6876
:10E3BC001B781A46BB689C18F868FFF749FD0346A2
:10E3CC0023703B681B780133DAB23B681A703B68E8
:10E3DC001B781A46FB79013B9A4204D1F86802215A
:10E3EC00FFF754FD05E03B681B78FA799A4200D19F
:10E3FC0003E0F8682021FFF785FC1437BD4690BD7B
:10E40C0080B588B002AFF860B9607A603B60BB68D9
:10E41C001B78002B05D17B681B7897F820209A423B
:10E42C0002D10123FB7501E00023FB75BB681B784F
:10E43C00002B0FD0F8684FF49271FFF773FCF8685B
:10E44C004FF48E71FFF76EFCF8684FF48471FFF790
:10E45C0069FC72E0F8684FF49271FFF773FC0346A5
:10E46C00002B0CD0F8684FF49271FFF75BFCF86846
:10E47C001421FFF747FCBB6801221A705DE0F868B5
:10E48C004FF48E71FFF75EFC0346002B2BD0F8681F
:10E49C004FF48E71FFF746FCF8684FF49271FFF75A
:10E4AC0051FC0346002B0CD0F8684FF49271FFF727
:10E4BC0039FCF8681421FFF725FCBB6801221A709F
:10E4CC003BE097F8202097F824300093F8683968DF
:10E4DC007B68FFF72FFF034683F00103DBB2002BB1
:10E4EC002BD000233CE0F8684FF48471FFF72AFC32
:10E4FC000346002B21D0F8684FF48471FFF712FC0F
:10E50C00F8684FF49271FFF71DFC0346002B0CD0FA
:10E51C00F8684FF49271FFF705FCF8681421FFF7C7
:10E52C00F1FBBB6801221A7007E097F82030F868FD
:10E53C0039681A467B68FFF72DFFFB7D002B0ED048
:10E54C00F8684FF48271FFF7FDFB0346002B06D0F1
:10E55C00F8684FF48271FFF7E5FB002300E001231C
:10E56C0018461837BD4680BD90B589B002AFF8602B
:10E57C00B9607A60FB7000237B61B8684FF48271DC
:10E58C00FFF7D0FBB8684FF49271FFF7CBFBB8687C
:10E59C004FF48E71FFF7C6FBB8684FF48471FFF728
:10E5AC00C1FBB8680021FFF771FCFB68002283F8FF
:10E5BC002620FB68002283F82320B8682021FFF76F
:10E5CC00A1FBB8680821FFF79DFBFB6803F126044B
:10E5DC00FA7897F828300093B86879682346FFF7E3
:10E5EC00A9FEFB681B68002B0AD0FB6840F2862250
:10E5FC009A60FB689B68B8681946FFF7B9FB19E08D
:10E60C0000BFFB6803F12301FB6803F12602FB78D2
:10E61C00009397F828300193B8687B68FFF7F0FEF9
:10E62C000346002BEDD1FB6893F82330002B01D06F
:10E63C0003237B617B6918461C37BD4690BD00BF28
:10E64C0080B588B002AFF860B9607A60FB700023C7
:10E65C007B61B8684FF48271FFF764FBB8684FF4C4
:10E66C009271FFF75FFBB8684FF48E71FFF75AFB9E
:10E67C00B8684FF48471FFF755FBFB68002283F8F0
:10E68C002620FB68002283F82320FB78012B04D181
:10E69C00B8680221FFF7FAFB03E0B8680121FFF725
:10E6AC00F5FBB8682021FFF72DFBB8680021FFF7B8
:10E6BC0029FBFB681B68002B0AD0FB6840F2862202
:10E6CC009A60FB689B68B8681946FFF751FB18E025
:10E6DC0000BFFB6803F12301FB6803F12602FB7802
:10E6EC00009300230193B8687B68FFF789FE03460B
:10E6FC00002BEED1FB6893F82330002B01D00323C1
:10E70C007B617B6918461837BD4680BD90B589B0D2
:10E71C0002AFF860B9607A603B6000237B61B86837
:10E72C004FF0FF31FFF732FBFB6893F82430DBB27C
:10E73C00002B07D0FB689B68B8681946FFF718FBDD
:10E74C00112364E03B6803F00403002B0CBF01238E
:10E75C000023DAB2FB6883F824203B6803F008033B
:10E76C00002B01D0062352E0FB683A689A61FB68E3
:10E77C007A680C3307CA83E807007B689A78FB68D1
:10E78C0083F820207B685A68FB68DA617B685B78C9
:10E79C00B8681946FFF74CFB7B681B78012B20D01F
:10E7AC007B681B78002B04D13B6803F02003002B03
:10E7BC0001D0012300E0002303F00103DAB2FB686F
:10E7CC0083F821207B685A687B689C78FB6893F8F7
:10E7DC0021300093F868B9682346FFF7C5FE7861CD
:10E7EC000CE0FB68002283F821207B685A687B6868
:10E7FC009B78F868B968FFF723FF7861FB681B68A2
:10E80C00002B03D1FB68002283F824207B69184677
:10E81C001C37BD4690BD00BF80B586B000AFF86018
:10E82C00B9607A6000237B61FB681B791A4613463A
:10E83C009B001344DB000C4A13443B617B6803F0E0
:10E84C000303002B01D0062309E0FB681B68386921
:10E85C001946BA687B68FFF759FF78617B691846DF
:10E86C001837BD4680BD00BF7423002080B588B02A
:10E87C0000AFF8607A601A460B46FB721346BB7207
:10E88C0007F1140300221A60043300221A600433C7
:10E89C0000221A600433FB7A7B75BB7ABB757B68EC
:10E8AC00BB6197F82830002B01D0202300E0002317
:10E8BC0007F11402F86811461A46FFF7ADFF03463C
:10E8CC0018462037BD4680BD80B588B000AFF860D3
:10E8DC007A601A460B46FB721346BB7207F114039F
:10E8EC0000221A60043300221A60043300221A60DA
:10E8FC00043301233B75FB7A7B75BB7ABB757B6854
:10E90C00BB6107F11403F86819460022FFF784FF76
:10E91C00034618462037BD4680BD00BFB0B58AB04F
:10E92C0002AF786039603B6803F123013B6803F167
:10E93C0026053B68DC693B6893F820203B6893F81C
:10E94C0021300092019378682A462346FFF758FD40
:10E95C000346002B00D07DE03B6893F8233083F016
:10E96C000103DBB2002B3FD03B681B7B022B03D097
:10E97C003B681B7B032B37D13B68DA693B681B690F
:10E98C009A4231D13B685A693B68DA613B68DA7B61
:10E99C003B6883F820203B689B6903F02003002B25
:10E9AC0014BF01230023DAB23B6883F821203B68B3
:10E9BC001B7B032B0ED13B68DA693B6893F8204034
:10E9CC003B6893F821300093386879682346FFF749
:10E9DC00CBFD3FE03B68DA693B6893F82030386840
:10E9EC007968FFF72DFE35E03A6807F110030C3219
:10E9FC0007CA83E807003B6893F82330002B14D038
:10EA0C007868FFF701FAF861FB6903F00203002B49
:10EA1C0002D001233B7307E0FB6903F00403002BD6
:10EA2C0002D002233B7302E001E000233B733B68FE
:10EA3C00002283F824203B689B6903F00403002B1D
:10EA4C0008D13B681B683A68526807F10C0108460C
:10EA5C00114698472037BD46B0BD00BF80B500AF0A
:10EA6C0002480349FFF75AFF80BD00BF0030004049
:10EA7C007423002080B500AF4FF040200149FFF710
:10EA8C004DFF80BD9C230020A0DF7047184600BFBF
:10EA9C00A2DF7047184600BFA6DF7047184600BFBC
:10EAAC0063DF7047184600BF80B483B000AF786056
:10EABC0039603B689A887B689A820C37BD465DF852
:10EACC00047B704780B483B000AF786039607B689A
:10EADC004FF6FF729A820C37BD465DF8047B704787
:10EAEC0080B584B000AF786039603B680633FB605A
:10EAFC00FB681A887B685B889A420ED1FB685B893D
:10EB0C00002B0AD07B689B69002B06D07B689B6925
:10EB1C00FA680C327868114698471037BD4680BDAC
:10EB2C0080B582B000AF786039603B681B88112BD0
:10EB3C0009D0502B0CD0102B00D00EE0786839681F
:10EB4C00FFF7B2FF09E078683968FFF7BBFF04E014
:10EB5C0078683968FFF7C4FF00BF0837BD4680BD31
:10EB6C0080B590B000AF7860396007F12403184687
:10EB7C0000211C2207F048FA97F8243043F00203D6
:10EB8C0087F8243097F8243043F0080387F82430B2
:10EB9C000023BB6200233B6300237B630023BB6326
:10EBAC000023FB637B689B7CBB7341F22553BB81C9
:10EBBC0007F1080318460021032207F025FA3B7AD7
:10EBCC00012262F303033B723B7A012262F30713C7
:10EBDC003B727B7A012262F303037B727B7A012204
:10EBEC0062F307137B72BB7A012262F34203BB729E
:10EBFC00BB7A6FF3C303BB72BB7A6FF30413BB72A4
:10EC0C00BB7A6FF30003BB7207F1100318460021A7
:10EC1C00142207F0F9F907F10C033B6107F1080323
:10EC2C007B6101233B8300237B831423BB83002361
:10EC3C003B627B6818887B68023307F1240107F17B
:10EC4C001002FFF725FF034618464037BD4680BD2E
:10EC5C0080B592B000AF7860396007F12803184690
:10EC6C000021032207F0D0F997F82830012262F333
:10EC7C00030387F8283097F82830012262F3071332
:10EC8C0087F8283097F82930012262F3030387F8BC
:10EC9C00293097F82930012262F3071387F82930BD
:10ECAC0097F82A30012262F3420387F82A3007F1E1
:10ECBC002C03184600211C2207F0A6F997F82C30DB
:10ECCC0043F0020387F82C3097F82C3043F01003F4
:10ECDC0087F82C3000233B630023BB630023FB63CA
:10ECEC0007F128033B6400237B647B689B7CBB742B
:10ECFC0041F224533B8207F10C03184600210322F6
:10ED0C0007F082F93B7B012262F303033B733B7BED
:10ED1C00012262F307133B737B7B6FF303037B735B
:10ED2C007B7B6FF307137B73BB7B012262F3420384
:10ED3C00BB73BB7B6FF3C303BB73BB7B6FF304135E
:10ED4C00BB73BB7B6FF30003BB7307F11403184653
:10ED5C000021142207F058F907F110037B6107F129
:10ED6C000C03BB610123BB830023FB8314233B8473
:10ED7C0000237B627B6818887B680A3307F12C01BF
:10ED8C0007F11402FFF784FE034618464837BD46C8
:10ED9C0080BD00BF90B589B000AF786039607B68EA
:10EDAC004FF6FF729A823B681A687B689A61214B16
:10EDBC0007F10804186859689A68DB680FC47B6807
:10EDCC00123307F1080210461946FFF769FEF86185
:10EDDC00FB69002B01D0FB6928E07B689B7CBB7630
:10EDEC0041F223533B837B6807F118020120114643
:10EDFC001A46FFF749FEF861FB69002B01D0FB694D
:10EE0C0014E078683968FFF723FFF861FB69002B81
:10EE1C0001D0FB690AE078683968FFF7A1FEF86158
:10EE2C00FB69002B01D0FB6900E000231846243756
:10EE3C00BD4690BDB062020080B588B000AF78606E
:10EE4C000B46FB701346BB700123FB8107F11003CB
:10EE5C0018460021102207F0D7F80123BB747B68F9
:10EE6C005B893B82FB1CFB6107F10E03BB61BB782A
:10EE7C009BB2BB827B689A8A07F110031046194635
:10EE8C00FFF70AFE034618462037BD4680BD00BF7B
:10EE9C0080B588B000AF0346FB710023FB610023F3
:10EEAC00BB61FB79172B00F2348301A252F823F0DB
:10EEBC001DEF010041EF010041EF0100EDEF0100FA
:10EECC0099F001002FF10100D9F101006DF2010060
:10EEDC00A7F20100E3F2010025F3010061F3010048
:10EEEC00A3F30100BFF30100BFF30100BFF3010066
:10EEFC00BFF30100BFF301004FF401006BF40100FC
:10EF0C009FF40100D3F4010003F5010003F50100A7
:10EF1C004FF0A041CC4B1B68DA43CC4B1340C1F8EB
:10EF2C0008354FF0A0430022C3F80C25C84AFB79E2
:10EF3C001370EFE24FF0A042C34B1B68DB4303F4AA
:10EF4C008073C2F808354FF0A0430022C3F80C259B
:10EF5C004FF0A043D3F8043583F0007383F480732F
:10EF6C0003F00073002B14D04FF0A0434FF000724D
:10EF7C00C3F808254FF0A0430022C3F80C25FB79F9
:10EF8C00022B02D14FF4E16301E04FF47A63BB61D1
:10EF9C0012E04FF0A0434FF00072C3F80C254FF075
:10EFAC00A0430022C3F80825FB79022B01D1C8230A
:10EFBC0001E04FF4C873BB61A54AFB791370A549F6
:10EFCC00BB69A54AA2FB03235B09A44A126802FB96
:10EFDC0003F308461946002205F0BAFEF86199E2DF
:10EFEC004FF0A042984B1B68DB4303F48073C2F8CC
:10EFFC0008354FF0A0430022C3F80C254FF0A04376
:10F00C00D3F8043583F0007383F4807303F000733A
:10F01C00002B14D04FF0A0434FF00072C3F808251A
:10F02C004FF0A0430022C3F80C25FB79032B02D12F
:10F03C004FF4487301E04FF47A63BB6112E04FF078
:10F04C00A0434FF00072C3F80C254FF0A0430022F0
:10F05C00C3F80825FB79032B01D1C82301E04FF439
:10F06C00C873BB617A4AFB7913707A49BB697A4AD7
:10F07C00A2FB03235B09794A126802FB03F30846DF
:10F08C001946002205F064FEF86143E24FF0A042FD
:10F09C006D4B1B68DB4303F48073C2F808354FF0EB
:10F0AC00A0430022C3F80C254FF0A043D3F804353D
:10F0BC0083F0007383F4807303F00073002B0ED085
:10F0CC004FF0A0434FF00072C3F808254FF0A04357
:10F0DC000022C3F80C254FF47A63BB610DE04FF0AE
:10F0EC00A0434FF00072C3F80C254FF0A043002250
:10F0FC00C3F808254FF4C873BB61554AFB791370EC
:10F10C005449BB69544AA2FB03235B09534A126856
:10F11C0002FB03F308461946002205F019FEF861BC
:10F12C00F8E14FF0A042484B1B68DB4303F48073BB
:10F13C00C2F808354FF0A0430022C3F80C254FF05D
:10F14C00A043D3F8043583F0007383F4807303F089
:10F15C000073002B13D04FF0A0434FF00072C3F894
:10F16C0008254FF0A0430022C3F80C25FB79052B92
:10F17C0001D1C82301E04FF47A63BB6112E04FF078
:10F18C00A0434FF00072C3F80C254FF0A0430022AF
:10F19C00C3F80825FB79052B01D1C82301E04FF4F6
:10F1AC00C873BB612A4AFB7913702A49BB692A4A86
:10F1BC00A2FB03235B09294A126802FB03F30846EE
:10F1CC001946002205F0C4FDF861A3E14FF0A042FE
:10F1DC001D4B1B68DB4303F48073C2F808354FF0FA
:10F1EC00A0430022C3F80C254FF0A043D3F80435FC
:10F1FC0083F0007383F4807303F00073002B0BD047
:10F20C004FF0A0434FF00072C3F808254FF0A04315
:10F21C000022C3F80C250AE04FF0A0434FF0007217
:10F22C00C3F80C254FF0A0430022C3F80825084A68
:10F23C00FB791370074A094B1B68104619460022CC
:10F24C0005F086FDF86165E1D02300200001000285
:10F25C00C4230020D42300201F85EB51C823002099
:10F26C004FF0A042AE4B1B68DB4303F48073C2F833
:10F27C0008354FF0A0430022C3F80C254FF0A043F3
:10F28C004FF00072C3F80C254FF0A0430022C3F8D6
:10F29C000825A44AFB7913703CE14FF0A043D3F846
:10F2AC0004357B614FF0A0427B69DB4303F4807330
:10F2BC00C2F808354FF0A0427B6903F48073C2F8A2
:10F2CC000C35994A994B1B6810461946002205F0DB
:10F2DC003FFDF8611EE14FF0A043D3F804353B61CC
:10F2EC004FF0A0423B69DB4303F48073C2F808354E
:10F2FC004FF0A0423B6903F48073C2F80C358A4985
:10F30C008A4B1A6813469B00134408461946002280
:10F31C0005F01EFDF861FDE04FF0A043D3F8043575
:10F32C00FB604FF0A042FB68DB4303F48073C2F830
:10F33C0008354FF0A042FB6803F48073C2F80C351B
:10F34C00794A7A4B1B6810461946002205F000FDDD
:10F35C00F861DFE04FF0A043D3F80435BB604FF009
:10F36C00A042BB68DB4303F48073C2F808354FF04E
:10F37C00A042BB6803F48073C2F80C356A496B4B2E
:10F38C001A6813469B00134408461946002205F0E0
:10F39C00DFFCF861BEE04FF0A043654AC3F80C25D2
:10F3AC004FF0A0430022C3F808255E4AFB79137086
:10F3BC00B0E0604B184605F003FDF861FB79C3F132
:10F3CC001103BB61BB69002B2AD0FB69002B27D131
:10F3DC00534B4FF480721A60BB69012B12D95549FB
:10F3EC00BB69C82202FB03F3534AA2FB03235B094C
:10F3FC004E4A126802FB03F308461946002205F038
:10F40C00A7FCF8614FF0A041454B1A68484B1340DC
:10F41C00C1F80C354FF0A0430022C3F8082579E061
:10F42C004FF0A0413E4B1A68414B1340C1F80835D0
:10F43C004FF0A0430022C3F80C25394B00221A6070
:10F44C0068E04FF0A0433A4AC3F808254FF0A043B8
:10F45C000022C3F80C25334AFB7913705AE04FF0A5
:10F46C00A0434FF48072C3F808254FF0A04300224C
:10F47C00C3F80C254FF0A0434FF00072C3F80C25D5
:10F48C004FF0A0430022C3F80825264AFB791370DD
:10F49C0040E04FF0A0434FF00072C3F808254FF046
:10F4AC00A0430022C3F80C254FF0A0434FF4807208
:10F4BC00C3F80C254FF0A0430022C3F80825194AC5
:10F4CC00FB79137026E04FF0A0430022C3F8082507
:10F4DC004FF0A0430022C3F80C254FF0A043144A70
:10F4EC00C3F80C254FF0A0430022C3F808250D4AA1
:10F4FC00FB7913700EE04FF0A0430D4AC3F80C25B6
:10F50C004FF0A0430022C3F80825064AFB7913707C
:10F51C0000E000BFFB6918462037BD4680BD00BF28
:10F52C00D0230020C4230020D4230020C823002093
:10F53C0000010002F42300201F85EB5180B584B03C
:10F54C0000AF0346FB710023FB60084B1B6803F004
:10F55C000103002B04D0FB791846FFF799FCF860E7
:10F56C00FB6818461037BD4680BD00BFCC23002079
:10F57C0071DF7047184600BF72DF7047184600BF36
:10F58C0079DF7047184600BF7DDF7047184600BF13
:10F59C0065DF7047184600BF80B483B000AF0346E8
:10F5AC003960FB80FB88DAB23B681A703B68013328
:10F5BC00FA88120A92B2D2B21A70022318460C3789
:10F5CC00BD465DF8047B704780B487B000AFF8602F
:10F5DC00B9607A607B807B681B8803F112027B88A0
:10F5EC009A4201D90C2336E07B681B881A46BB680B
:10F5FC00134411221A707B681B8801339AB27B6802
:10F60C001A807B681B881A46BB68134410221A7038
:10F61C007B681B8801339AB27B681A800F23FB75B9
:10F62C0014E07B681B881A46BB68134497F91720B3
:10F63C00F9688A5C1A70FB7DDBB2013BDBB2FB75AF
:10F64C007B681B8801339AB27B681A8097F9173054
:10F65C00002BE6DA002318461C37BD465DF8047B08
:10F66C00704700BF80B485B000AFB9607A601A46AD
:10F67C000346FB731346BB817B681B88DA1CBB8972
:10F68C009A4201D90C2352E07B681B881A46BB684E
:10F69C00134402221A707B681B8801339AB27B6870
:10F6AC001A807B681B881A46BB6813441C221A708C
:10F6BC007B681B8801339AB27B681A80FB7B013B09
:10F6CC00032B2BD801A252F823F000BFE9F601005E
:10F6DC00F9F6010009F7010019F701007B681B8896
:10F6EC001A46BB68134400221A7019E07B681B8809
:10F6FC001A46BB68134401221A7011E07B681B8800
:10F70C001A46BB68134402221A7009E07B681B88F6
:10F71C001A46BB68134403221A7001E0072306E063
:10F72C007B681B8801339AB27B681A8000231846C9
:10F73C001437BD465DF8047B704700BF80B588B0B8
:10F74C0000AFF860B9601346FB80BB681B8803F1FF
:10F75C000902FB889A4201D90C2350E007F11403EB
:10F76C001846FFF705FFF861FB69002B01D0FB6918
:10F77C0045E0BB681B881A46FB68134408221A70C4
:10F78C00BB681B8801339AB2BB681A80BB681B88A4
:10F79C001A46FB6813441B221A70BB681B88013382
:10F7AC009AB2BB681A80BB681B881A46FB681A445D
:10F7BC0007F11403013310461946062206F006FC25
:10F7CC00BB681B8806339AB2BB681A803B7D002B42
:10F7DC0007D1BB681B881A46FB68134400221A70B9
:10F7EC0006E0BB681B881A46FB68134401221A709A
:10F7FC00BB681B8801339AB2BB681A800023184679
:10F80C002037BD4680BD00BF80B588B000AFF86022
:10F81C00B9607A607B80FB681B78012B05D1FB6893
:10F82C005B78002B01D1072377E07B681B889A1C3F
:10F83C007B889A420DD8FB681B78012B0BD17B6817
:10F84C001B881A46FB685B7813449A1C7B889A4287
:10F85C0001D90C2361E07B681B887A88D31A9BB290
:10F86C00023BBB83BB8BFB827B681B880233BA6871
:10F87C001A4407F1160310461946FFF785FEB861C6
:10F88C00BB69002B01D0BB6947E0FB681B78022BDE
:10F89C0006D1FB8ABA8B9A4202D30923FB7712E07A
:10F8AC000823FB77FB681B78012B0AD1FB685B787C
:10F8BC009BB2BA8B9A4204D3FB685B789BB2FB82F7
:10F8CC0001E0BB8BFB82FB8AFE2B01D90C2324E0CD
:10F8DC007B681B881A46BB681344FA8AD2B2013281
:10F8EC00D2B21A707B681B8801339AB27B681A807B
:10F8FC007B681B881A46BB681344FA7F1A707B68B6
:10F90C001B8801339AB27B681A807B681A88FB8A41
:10F91C0013449AB27B681A80002318462037BD46E0
:10F92C0080BD00BF80B586B000AFF860B9601346EB
:10F93C00FB80BB681B881A1DFB889A4201D90C23DB
:10F94C0038E007F112031846FFF71AFE78617B695D
:10F95C00002B01D07B692DE0BB681B881A46FB6825
:10F96C00134403221A70BB681B8801339AB2BB681C
:10F97C001A80BB681B881A46FB68134419221A703C
:10F98C00BB681B8801339AB2BB681A807A8ABB6841
:10F99C001B881946FB680B4410461946FFF7FCFD03
:10F9AC0003461946BB681A888BB213449AB2BB68DB
:10F9BC001A80002318461837BD4680BD80B485B028
:10F9CC0000AFB9607A601A460346FB731346BB81DD
:10F9DC007B681B88DA1CBB899A4201D90C2327E06F
:10F9EC007B681B881A46BB68134402221A707B681A
:10F9FC001B8801339AB27B681A807B681B881A4675
:10FA0C00BB68134401221A707B681B8801339AB2BD
:10FA1C007B681A807B681B881A46BB681344FA7B88
:10FA2C001A707B681B8801339AB27B681A8000239A
:10FA3C0018461437BD465DF8047B704780B485B01A
:10FA4C0000AFB9607A601A460346FB731346BB815C
:10FA5C007B681B88DA1CBB899A4201D90C2327E0EE
:10FA6C007B681B881A46BB68134402221A707B6899
:10FA7C001B8801339AB27B681A807B681B881A46F4
:10FA8C00BB68134411221A707B681B8801339AB22D
:10FA9C007B681A807B681B881A46BB681344FA7B08
:10FAAC001A707B681B8801339AB27B681A8000231A
:10FABC0018461437BD465DF8047B704780B485B09A
:10FACC0000AFB9607A601A460346FB731346BB81DC
:10FADC007B681B88DA1CBB899A4201D90C2327E06E
:10FAEC007B681B881A46BB68134402221A707B6819
:10FAFC001B8801339AB27B681A807B681B881A4674
:10FB0C00BB6813440A221A707B681B8801339AB2B3
:10FB1C007B681A807B681B881A46BB681344FA7B87
:10FB2C001A707B681B8801339AB27B681A80002399
:10FB3C0018461437BD465DF8047B704780B58AB013
:10FB4C0000AFF8607B600B46FB721346BB72002360
:10FB5C0087F823303B6B1B883B8400237B626BE074
:10FB6C00FB685A687B6A9B001A4407F11003106803
:10FB7C00186007F1100207F117031046194600220E
:10FB8C00FFF706FDF861FB69002B01D0FB6970E003
:10FB9C00FB7DBA7A9A424CD197F82330002B01D0D6
:10FBAC00002300E00223FB763B6B1B881A46FB7D8F
:10FBBC001A44FB7E1A44BB8E9A4201DD0C2358E09A
:10FBCC0097F8233083F00103DBB2002B15D03B6B8D
:10FBDC001B8801339AB23B6B1A803B6B1B881A460D
:10FBEC007B681344FA7A1A703B6B1B8801339AB208
:10FBFC003B6B1A80012387F823303B6B1B881A461A
:10FC0C007B68134407F1100107F1170208461146EF
:10FC1C001A46FFF7BDFCF861FB69002B01D0FB69AC
:10FC2C0027E03B6B1A88FB7D9BB213449AB23B6B6B
:10FC3C001A807B6A01337B62FB681B881A467B6ADD
:10FC4C009A428DDC97F82330002B11D03B6B1A882D
:10FC5C003B8CD31A9BB2013B3B833B8BFF2B01D9D3
:10FC6C000C2306E03B8C7A6813443A8BD2B21A70A0
:10FC7C00002318462837BD4680BD00BF80B588B02C
:10FC8C0002AFF8607B600B46FB721346BB72FA7ACC
:10FC9C003B6A0093BB8C0193F868114602227B6887
:10FCAC00FFF74CFF78617B69002B01D07B6911E079
:10FCBC00BA7A3B6A0093BB8C0193F8681146102208
:10FCCC007B68FFF73BFF78617B69002B01D07B6978
:10FCDC0000E0002318461837BD4680BD80B483B0C1
:10FCEC0000AF78607B681B88052B0AD97B681B8862
:10FCFC00B3F5486F07D97B681B884FF6FF729342A8
:10FD0C0001D0072325E07B685B88052B0AD97B682B
:10FD1C005B88B3F5486F07D97B685B884FF6FF7239
:10FD2C00934201D0072314E07B681B884FF6FF72C7
:10FD3C0093420DD07B685B884FF6FF72934207D0DD
:10FD4C007B681A887B685B889A4201D9072300E09C
:10FD5C00002318460C37BD465DF8047B704700BF86
:10FD6C0080B586B000AFF860B9607A607B807B6844
:10FD7C001B889A1D7B889A4201D90C234BE0F868AA
:10FD8C00FFF7ACFF78617B69002B01D07B6942E007
:10FD9C007B681B881A46BB68134405221A707B6863
:10FDAC001B8801339AB27B681A807B681B881A46C1
:10FDBC00BB68134412221A707B681B8801339AB2F9
:10FDCC007B681A80FB681A887B681B881946BB689D
:10FDDC000B4410461946FFF7DFFB034619467B68B8
:10FDEC001A888BB213449AB27B681A80FB685A88C3
:10FDFC007B681B881946BB680B4410461946FFF7F5
:10FE0C00CBFB034619467B681A888BB213449AB213
:10FE1C007B681A80002318461837BD4680BD00BF8A
:10FE2C0080B586B000AFF860B9607A607B80FB6803
:10FE3C009B8802337B617B681B881A467B69134461
:10FE4C009A1C7B889A4201D90C2356E07B69FE2BC5
:10FE5C0001D90C2351E07B681B881A46BB681344FC
:10FE6C007A69D2B20132D2B21A707B681B88013324
:10FE7C009AB27B681A807B681B881A46BB6813444D
:10FE8C00FF221A707B681B8801339AB27B681A8038
:10FE9C00FB681A887B681B881946BB680B441046A4
:10FEAC001946FFF779FB034619467B681A888BB213
:10FEBC0013449AB27B681A80FB689B88002B1BD07A
:10FECC00FB689B68002B01D1072316E07B681B881D
:10FEDC001A46BB689918FB689A68FB689B880846A9
:10FEEC0011461A4606F072F87B681A88FB689B88E4
:10FEFC0013449AB27B681A80002318461837BD4603
:10FF0C0080BD00BF80B588B000AFF860B9607A6082
:10FF1C007B80FB689B6A002B01D107236FE00023D9
:10FF2C00FB7765E0FB68996AFA7F13465B00134424
:10FF3C009B000B44BB61BB699B8802337B617B6973
:10FF4C00FE2B01D90C235AE07B681B881A46BB6830
:10FF5C0013447A69D2B20132D2B21A707B681B8810
:10FF6C0001339AB27B681A807B681B881A46BB687F
:10FF7C00134416221A707B681B8801339AB27B6873
:10FF8C001A80BB691A887B681B881946BB680B44AE
:10FF9C0010461946FFF700FB034619467B681A8882
:10FFAC008BB213449AB27B681A80BB699B88002B76
:10FFBC001BD0BB699B68002B01D107231FE07B681A
:10FFCC001B881A46BB689918BB699A68BB699B88E1
:10FFDC00084611461A4605F0F9FF7B681A88BB697A
:10FFEC009B8813449AB27B681A80FB7F0133FB77A2
:04FFFC00FB6893F813
:020000022000DC
:100000002C30FA7F9A4293D3002318462037BD46FE
:1000100080BD00BF80B588B002AFF860B9607A607B
:1000200000237B617B681B887B827B6800221A80AF
:10003000FB685B6B002B0ED0FB685B6B1A787B8ACE
:100040001046B9687A68FFF7FFFC78617B69002B7E
:1000500001D07B69F9E0FB681B6B002B0DD0FB68BE
:100060001A6B7B8A1046B9687A68FFF7B3FA786131
:100070007B69002B01D07B69E7E0FB6893F82E30A9
:10008000002B0ED0FB6893F82E207B8A1046B968AF
:100090007A68FFF7EDFA78617B69002B01D07B6904
:1000A000D3E0FB6893F82D30002B0BD07B8AB86827
:1000B00079681A46FFF748FB78617B69002B01D00D
:1000C0007B69C2E0FB689B78002B0BD07B8AB86809
:1000D00079681A46FFF72CFC78617B69002B01D008
:1000E0007B69B2E0FB68DB78002B0FD0FB68DB7824
:1000F000DBB25AB27B8A1046B9687A68FFF764FCB3
:1001000078617B69002B01D07B699EE0FB685B68AE
:10011000002B0FD0FB685B681B785AB27B8A1046B5
:10012000B9687A68FFF7D0FC78617B69002B01D051
:100130007B698AE0FB681B89002B12D0FB6803F106
:1001400008027B6800937B8A0193104602210622F5
:10015000BB68FFF799FD78617B69002B01D07B6953
:1001600073E0FB681B8A002B12D0FB6803F11002BE
:100170007B6800937B8A0193104603210722BB68AA
:10018000FFF782FD78617B69002B01D07B695CE021
:10019000FB681B8B002B12D0FB6803F118027B68F5
:1001A00000937B8A0193104614211522BB68FFF748
:1001B0006BFD78617B69002B01D07B6945E0FB68B2
:1001C0001B6A002B0DD0FB681A6A7B8A1046B9683F
:1001D0007A68FFF7CBFD78617B69002B01D07B69E2
:1001E00033E0FB685B6A002B0DD0FB685A6A7B8AA0
:1001F0001046B9687A68FFF719FE78617B69002BB1
:1002000001D07B6921E0FB6893F82C30002B0BD0E8
:100210007B8AF868B9687A68FFF77AFE78617B694B
:10022000002B01D07B6910E0FB681B78002B0BD002
:100230007B8AF868B9687A68FFF7ECFA78617B69BD
:10024000002B01D07B6900E07B6918461837BD465A
:1002500080BD00BF80B483B000AF78607B68DB787E
:1002600003F00403002B01D1072300E0002318460C
:100270000C37BD465DF8047B704700BF80B483B087
:1002800000AF78607B68DB78002B01D0072300E0AB
:10029000002318460C37BD465DF8047B704700BF4D
:1002A00080B596B000AF786039601F23A7F84A3058
:1002B0001F23A7F848307B68002B1BD07868FFF716
:1002C000C9FFF864FB6C002B01D0FB6C47E007F121
:1002D000280207F14A03786811461A46FFF79AFE8A
:1002E000F864FB6C002B01D0FB6C38E007F12803AD
:1002F0007B6504E000237B650023A7F84A303B6858
:10030000002B1BD03868FFF7B9FFF864FB6C002B9B
:1003100001D0FB6C23E007F1080207F148033868BD
:1003200011461A46FFF776FEF864FB6C002B01D0ED
:10033000FB6C14E007F108033B6504E000233B6518
:100340000023A7F84830B7F84A30DAB2B7F8483097
:10035000DBB2786D11463A6DFFF714F90346184683
:100360005837BD4680BD00BF75DF7047184600BFD7
:1003700076DF7047184600BF7ADF7047184600BF27
:100380007BDF7047184600BF80B483B000AF786051
:100390007B681B789AB27B6801331B781B029BB287
:1003A00013439BB29BB218460C37BD465DF8047BE5
:1003B000704700BF80B584B000AF78607868FFF701
:1003C000E3FF0346FB81FB8903F00103002B14BF0D
:1003D00001230023DBB218461037BD4680BD00BFA5
:1003E00080B483B000AF78607B685A88094B1B8863
:1003F0009A4207D37B685A88064B5B889A4201D899
:10040000012300E0002318460C37BD465DF8047B4D
:10041000704700BF3024002080B586B000AF786000
:10042000264B1B884FF6FF72934244D0244B1B7817
:100430000133DAB2224B1A70224B1A7B204B1B7805
:100440009A4213D31D4B1B8818461F49FFF78CFF98
:1004500078617B69002B08D01A4B9B69002B04D074
:10046000184B9B697869984725E024E0144B0022DB
:100470001A70144B1B7C002B11D0104B1B88184694
:100480003B21FFF775FF38613B69002B07D00D4B0F
:100490009B69002B03D00B4B9B6938699847094B2C
:1004A0005B69002B07D000233B73064B5B6907F1A8
:1004B0000C02104698471837BD4680BD3A240020EC
:1004C000382400201424002030240020B0B584B04B
:1004D00000AF78601C4A7B6814461D460FCD0FC4E0
:1004E00095E8070084E80700184B00221A707B6823
:1004F0001B68002B0ED07B681A68154B106851687A
:1005000003C31348FFF738FFF860FB68002B0AD0DD
:10051000FB6815E00E48FFF733FFF860FB68002B1F
:1005200001D0FB680CE00B4B4FF6FF721A800A4BB0
:1005300000221A7009480021094A04F0C1FB034651
:1005400018461037BD46B0BD142400206424002096
:10055000302400203A24002038240020C062020009
:100560001904020080B584B000AF2448FFF738FFBB
:10057000034683F00103DBB2002B2ED0204B1B7807
:10058000002B0BD01F4B5B69002B25D000233B7148
:100590001C4B5B693A1D1046984729E01A4B1B78A3
:1005A000002B03D1174B5B68FB6002E0154B9B6887
:1005B000FB60164B1846F968002204F0CFFBB860C8
:1005C000BB68002B08D00F4B9B69002B04D00D4B50
:1005D0009B69B86898470BE00AE00A4B5B69002BFF
:1005E00006D001233B70074B5B693A46104698479B
:1005F000034B00221A701037BD4680BD3C240020FA
:1006000064240020142400203824002044240020E6
:1006100080B582B000AF78607B689A880A4B1A80F8
:100620000A4A7B68183393E8030082E80300084B0A
:1006300000221A70074BDB89002B01D1FFF792FFD4
:100640000837BD4680BD00BF3A2400203C2400206E
:10065000382400201424002080B584B000AF7860D6
:100660000C4B4FF6FF721A800B4B00221A700B4B8B
:10067000184604F0ABFBF860FB68002B07D0084B72
:100680009B69002B03D0064B9B69F868984710378D
:10069000BD4680BD3A240020382400204424002098
:1006A0001424002080B584B000AF78607B680633E6
:1006B000FB60FB681A88134BDB899A421ED1FB68EA
:1006C0005B89022B1AD1FB680C331846FFF772FEC8
:1006D0000346002B02D0FFF745FF0FE00A4B1846F8
:1006E00004F074FBB860BB68002B07D0054B9B6916
:1006F000002B03D0034B9B69B86898471037BD4661
:1007000080BD00BF142400204424002080B582B0A6
:1007100000AF7860054A7B68083393E8030082E8FD
:100720000300FFF71FFF0837BD4680BD3C240020B3
:1007300080B582B000AF78607B681B88112B0DD02C
:10074000112B02DC102B05D014E0122B0ED0502BF5
:1007500008D00FE07868FFF75BFF0BE07868FFF7E1
:100760007BFF07E07868FFF79DFF03E07868FFF7FD
:10077000CDFF00BF0837BD4680BD00BF80B485B047
:1007800000AF786043E07B68013B7B6040F2E73379
:10079000FB60FB681846013800BF00BF00BF00BF08
:1007A00000BF00BF00BF00BF00BF00BF00BF00BF51
:1007B00000BF00BF00BF00BF00BF00BF00BF00BF41
:1007C00000BF00BF00BF00BF00BF00BF00BF00BF31
:1007D00000BF00BF00BF00BF00BF00BF00BF00BF21
:1007E00000BF00BF00BF00BF00BF00BF00BF00BF11
:1007F00000BF00BF00BF00BF00BF00BF00BF00BF01
:1008000000BF00BF00BF00BF00BF00BFC3D17B68F7
:10081000002BB8D11437BD465DF8047B704700BF8C
:1008200080B483B000AF0346FB71084997F90730E5
:100830005B09FA7902F01F02012000FA02F241F886
:1008400023200C37BD465DF8047B704700E100E0D3
:1008500080B483B000AF0346FB71094997F90730B4
:100860005B09FA7902F01F02012000FA02F26033FC
:1008700041F823200C37BD465DF8047B704700BF6C
:1008800000E100E080B483B000AF03463960FB7143
:1008900097F90730002B0BDA0D49FB7903F00F03B2
:1008A000043B3A68D2B25201D2B20B441A7609E044
:1008B000084997F907303A68D2B25201D2B20B44D4
:1008C00083F800230C37BD465DF8047B704700BFFA
:1008D00000ED00E000E100E080B582B000AF03462B
:1008E0000A46FB711346BB71BB7997F90720104686
:1008F0001946FFF7C7FF97F907301846FFF7A8FF1B
:1009000097F907301846FFF78BFF0837BD4680BDC3
:1009100080B483B000AF0346FB71FB7903F18043E1
:1009200003F5C04318460C37BD465DF8047B70479D
:1009300080B582B000AF0346FB80FB88184600F00C
:1009400023F803461B68012B0CBF01230023DBB2F5
:1009500018460837BD4680BD80B584B000AF034659
:10096000FB80FB88184600F00FF803461A46002368
:100970001360FB88184600F007F803461B68FB600D
:10098000FB681037BD4680BD80B483B000AF03461E
:10099000FB80FB8803F1804303F5C04318460C3706
:1009A000BD465DF8047B704780B483B000AF7860CB
:1009B000044A7B68C2F804330C37BD465DF8047BFB
:1009C000704700BF0060004080B483B000AF786023
:1009D000044A7B68C2F808330C37BD465DF8047BD7
:1009E000704700BF0060004080B483B000AF786003
:1009F000054BD3F804237B68134018460C37BD46DB
:100A00005DF8047B704700BF0060004080B483B095
:100A100000AF78600949094A7B6803F5A27352F870
:100A2000233043F001027B6803F5A27341F82320D1
:100A30000C37BD465DF8047B704700BF0060004086
:100A400080B483B000AF78600949094A7B6803F538
:100A5000A27352F8233023F001027B6803F5A273DE
:100A600041F823200C37BD465DF8047B704700BF7A
:100A70000060004080B485B000AFF860B9601346F4
:100A8000FB711549144AFB6803F5A27352F8233031
:100A900023F4473323F44073FA6802F5A27241F855
:100AA00022300D480C4AFB6803F5A27352F823204C
:100AB000BB681B0203F4F851FB791B0403F44033B9
:100AC0000B431A43FB6803F5A27340F82320143745
:100AD000BD465DF8047B70470060004080B483B081
:100AE00000AF7860074A7B6803F5A27352F82330A1
:100AF00003F4F8531B0A18460C37BD465DF8047B17
:100B0000704700BF0060004080B483B000AF7860E1
:100B1000074A7B6803F5A27352F8233003F440338D
:100B20001B0CDBB218460C37BD465DF8047B7047E2
:100B30000060004080B485B000AF7860104A7B68E8
:100B400003F5A27352F8233043F00303FB600C4912
:100B5000FB6843F4F8527B6803F5A27341F8232045
:100B600000BF00BF00BF06497B6803F5A273FA68A7
:100B700041F823201437BD465DF8047B704700BF61
:100B80000060004080B485B000AFF860B9601146E5
:100B90001A460B46FB711346BB711849174AFB688E
:100BA00003F5A27352F8233023F4981323F4F85377
:100BB000FA6802F5A27241F8223010480F4AFB6829
:100BC00003F5A27352F82320BB681B0203F4F8510B
:100BD000FB791B0403F440331943BB791B0503F471
:100BE00080130B431A43FB6803F5A27340F82320DC
:100BF0001437BD465DF8047B704700BF00600040BD
:100C000080B483B000AF78600B46FB700B490B4A91
:100C10007B6803F5A27352F8233023F48012FB782B
:100C20001B0503F480131A437B6803F5A27341F894
:100C300023200C37BD465DF8047B70470060004000
:100C400080B483B000AF7860054A7B6803F5A27377
:100C5000002142F823100C37BD465DF8047B704735
:100C60000060004080B483B000AF78600846114651
:100C70001A460346FB700B46BB7013467B704FF061
:100C8000A041FA78BB785B001A437B789B001A433B
:100C90003B7C1B021A433B7D1B041A437B6803F514
:100CA000E07341F823200C37BD465DF8047B7047A4
:100CB00080B584B002AF78600023009300230193D5
:100CC0007868012101220023FFF7CCFF0837BD46D9
:100CD00080BD00BF90B585B002AF78600B46FB7059
:100CE000FC78002300930023019378680021002200
:100CF0002346FFF7B7FF0C37BD4690BD80B584B0E3
:100D000002AF7860002300930023019378680021EC
:100D100001220023FFF7A6FF0837BD4680BD00BFB4
:100D200080B485B000AF78604FF0A0427B6803F5D7
:100D3000E07352F8233023F00203FB604FF0A04130
:100D40007B6803F5E073FA6841F823201437BD4649
:100D50005DF8047B704700BF80B483B000AF78605B
:100D60000B46FB704FF0A0414FF0A0427B6803F5AB
:100D7000E07352F8233023F440327B6803F5E073CC
:100D800041F823204FF0A0414FF0A0427B6803F5CB
:100D9000E07352F82330FA7812041A437B6803F5A3
:100DA000E07341F823200C37BD465DF8047B7047A3
:100DB00080B483B000AF78604FF0A0427B6801211F
:100DC00001FA03F3C2F808350C37BD465DF8047B21
:100DD000704700BF80B483B000AF78604FF0A0428E
:100DE0007B68012101FA03F3C2F80C350C37BD46CC
:100DF0005DF8047B704700BF80B400AF4FF0A043A4
:100E0000D3F810351846BD465DF8047B704700BF27
:100E100080B483B000AF78604FF0A0427B6803F5E8
:100E2000E07352F8233003F440331B0CDBB2184656
:100E30000C37BD465DF8047B704700BF80B483B0BB
:100E400000AF7860084A7B68134430331B785BB28C
:100E5000B3F1FF3F14BF01230023DBB218460C3768
:100E6000BD465DF8047B70476824002080B483B0E1
:100E700000AF78600D4A7B68134430331B785BB257
:100E8000002B09DB094A7B68134430331B785BB2C3
:100E9000072B01DC012300E0002303F00103DBB298
:100EA00018460C37BD465DF8047B70476824002067
:100EB00080B483B000AF7860084A7B681344303355
:100EC0001B785BB2072BCCBF01230023DBB2184693
:100ED0000C37BD465DF8047B704700BF68240020D6
:100EE00080B483B000AF7860074A7B681344303326
:100EF0001B78DB43DBB2DB09DBB218460C37BD469F
:100F00005DF8047B704700BF6824002080B485B082
:100F100000AFF860B9607A60FB70BB68D9B20F4A65
:100F2000FB68134430330A461A700C49BB687A6870
:100F300041F82320FB7883F00103DBB2002B08D0BB
:100F4000BB68083BFA68D1B2044A13440A4683F8E6
:100F500050201437BD465DF8047B7047682400209C
:100F600080B483B000AF7860054A7B6813443033A7
:100F7000FE221A700C37BD465DF8047B704700BF37
:100F80006824002080B483B000AF7860054A7B6895
:100F900013443033FF221A700C37BD465DF8047BD2
:100FA000704700BF6824002080B483B000AF786031
:100FB000054A7B68134430331B785BB218460C3704
:100FC000BD465DF8047B70476824002080B483B080
:100FD00000AF7860044A7B6852F8233018460C371B
:100FE000BD465DF8047B70476824002080B588B05A
:100FF00000AFF860B9601346FB71FF23FB77FB7904
:10100000002B01D0002300E008237B61FB79002B3B
:1010100001D0082300E00C233B617B69BB6112E037
:101020000E4ABB6952F82330B3F1FF3F08D1FB7978
:10103000F868B969BA68FFF769FFBB69FB7706E032
:10104000BB690133BB61BA693B699A42E8D3FB7F54
:101050005BB218462037BD4680BD00BF6824002023
:1010600080B483B000AF0346FB71FB79094A4FF0AF
:10107000FF3142F82310FB79072B06D9FB79083B97
:10108000044A1344FF2283F850200C37BD465DF814
:10109000047B70476824002080B582B000AF194BF4
:1010A00093F85430002B01D0082326E00023FB7175
:1010B00006E0FB791846FFF765FFFB790133FB710A
:1010C000FB791F2BF5D90023FB7106E0FB7918464D
:1010D000FFF7C6FFFB790133FB71FB790B2BF5D9C9
:1010E00006200621FFF7F8FB4FF00040FFF75CFCFD
:1010F000044B012283F85420002318460837BD46CC
:1011000080BD00BF6824002080B400AF064B93F878
:101110005430002B14BF01230023DBB21846BD4618
:101120005DF8047B704700BF6824002080B584B060
:1011300000AF786039600023FB607868FFF77EFEBF
:101140000346002B02D00823FB6031E03B689B780C
:10115000002B19D0786800210122FFF747FF0346D2
:10116000FB7297F90B30B3F1FF3F0AD097F90B10E0
:101170003B681A783B685B7808467968FFF702FDA0
:1011800005E00423FB6002E07868FFF7E9FEFB68F6
:10119000002B0DD13B685B78012B03D17868FFF7FA
:1011A00007FE02E07868FFF715FE7868FFF780FD1C
:1011B000FB6818461037BD4680BD00BF80B582B0C1
:1011C00000AF78607868FFF751FE0346002B0ED021
:1011D0007868FFF7E9FE0346DBB21846FFF740FFE9
:1011E0007868FFF7E1FE03461846FFF729FD7868A7
:1011F000FFF7C8FE7868FFF781FD0837BD4680BD60
:1012000080B582B000AF7860054A7B681344303304
:101210001B785BB21846FFF78DFC0837BD4680BDD2
:101220006824002080B584B000AF78607868FFF74C
:10123000BBFE0346DBB29B00FB73FB7B1846FFF74C
:1012400067FB034618461037BD4680BD80B584B0A5
:1012500000AF78600B46FB70FB78002B14BF0123B6
:101260000023DBB2FB73074A7B68134430331B78DF
:101270005AB2FB7B10461946FFF7C2FC1037BD4639
:1012800080BD00BF6824002080B586B000AFF86044
:10129000B9607A6000237B61F868FFF721FE03469E
:1012A000002B02D008237B6141E0BB68DB78F86843
:1012B00079681A46FFF79AFE0346FB7497F91330D4
:1012C000B3F1FF3F31D0BB689B78002B03D0F868A7
:1012D000FFF726FD05E0BB685B78F8681946FFF765
:1012E000F9FCBB68DB78002B09D097F91320BB68A9
:1012F0001B781046F9681A46FFF7BCFB17E097F910
:101300001330083B97F91320083A0B490A4492F826
:101310005010BA6812789201D2B20A43D1B2064A8A
:1013200013440A4683F8502001E004237B617B6963
:1013300018461837BD4680BD6824002080B586B0A9
:1013400000AF78600B46FB707868FFF7B1FD03468D
:10135000002B2BD07868FFF727FE0346083B2C4A6A
:10136000134493F85030BB75BB7D9B097B757B7D27
:10137000032B0ED1FFF740FD01467B68012202FAE4
:1013800003F30B40002B01D0032300E00223FB7585
:1013900006E07B7D012B01D1022300E00323FB75D6
:1013A000FB7D78681946FFF7D7FC2DE07868FFF7DA
:1013B0005DFD0346002B27D07868FFF7F5FD034657
:1013C0003B613B699BB240339BB29B00FB813B6915
:1013D0001846FFF71BFBFB891846FFF7BDFAFB78A1
:1013E000002B11D07868FFF7DFFD03461846FFF7A2
:1013F000EDFDB860BB68002B06D001223B6902FA04
:1014000003F31846FFF7D0FA1837BD4680BD00BF7A
:101410006824002080B584B000AF78607868FFF75A
:1014200047FD0346002B04D078680021FFF794FCA9
:1014300015E07868FFF71AFD0346002B0FD0786897
:10144000FFF7B2FD0346FB60FB681846FFF7F8FAAA
:101450000122FB6802FA03F31846FFF7B5FA1037CA
:10146000BD4680BD80B592B000AF00237B640023F1
:101470003B644FF480737B8701237B630023FB6312
:101480001DE07B8F1846FFF753FA0346002B0DD063
:10149000786BFFF7A9FA0346002B07D07B8F18461D
:1014A000FFF75AFA7A6C7B6B13437B647B6B5B00B0
:1014B0007B637B8F04337B87FB6B0133FB63FB6BAD
:1014C000072BDED94FF4BE70FFF732FA0346002B2C
:1014D0000AD04FF4BE70FFF73FFA7B6C43F0004335
:1014E0007B64FFF789FC38647B6CDBB2002B26D071
:1014F00001237B630023FB631EE07A6B7B6C13404C
:10150000002B13D0F86BFFF7E9FA7862F86BFFF75E
:10151000FBFA034687F82330F86BFFF757FDF861B5
:1015200097F82320FB69786A114698477B6B5B002C
:101530007B63FB6B0133FB63FB6B072BDDD97B6CA0
:10154000002B80F29580002387F833300023FB6264
:101550004FF0FF33BB62002387F833300023FB6377
:101560006BE0454AFB6B134450331B78FB76FB7EE4
:1015700023F0C0037B61404AFB6B134450331B785C
:101580005BB2B3F1FF3F55D07B69BA6A22FA03F32D
:1015900003F00103002B4DD0FB7E9B09FB7478699F
:1015A000FFF702FD03461846FFF710FDF860FB68E1
:1015B000002B02D1FB7C032B3CD17B69012202FA78
:1015C00003F37B63FB7C032B03D1FA6A7B6B13432E
:1015D000FB627869FFF71CFC0346FB727A6B3B6C7D
:1015E0001340002B02D0FB7A022B07D07A6B3B6CA6
:1015F0001340002B1ED1FB7A032B1BD1FB7C032B4A
:1016000010D1FB7A022B01D1032300E00223BB722D
:10161000BB7A78691946FFF79FFB97F8333001339F
:1016200087F83330FB68002B04D0FA7CFB687869BC
:1016300011469847FB6B0133FB63FB6B032B90D97F
:1016400097F83330002B0ED0FFF7D6FB78607A681E
:101650003B6C9A4203D1002387F8333003E07B6868
:101660003B64FB6ABB6297F83330002B7FF473AFA7
:101670004837BD4680BD00BF6824002080B483B0D9
:1016800000AF78600B467B807B887A681344002229
:101690001A600C37BD465DF8047B704780B483B098
:1016A00000AF78600B467B807B887A6813441B68A8
:1016B000002B14BF01230023DBB218460C37BD46B4
:1016C0005DF8047B704700BF80B483B000AF7860E2
:1016D00039607B68D3F804233B681340002B14BFA8
:1016E00001230023DBB218460C37BD465DF8047BAE
:1016F000704700BF80B483B000AF786039607B680A
:101700003A68C3F808230C37BD465DF8047B704780
:1017100080B485B000AF78607B68D3F88034FB601C
:101720007B68FA68C3F88024FB6818461437BD4606
:101730005DF8047B704700BF80B483B000AF786071
:101740007B68D3F81835DBB218460C37BD465DF818
:10175000047B704780B483B000AF78600B46FB70A9
:10176000FA787B68C3F81C250C37BD465DF8047B0E
:10177000704700BF80B483B000AF78600B46FB7049
:10178000FB787A68134401221A600C37BD465DF875
:10179000047B704780B483B000AF78600B467B80D9
:1017A0007B887A68134400221A600C37BD465DF8C6
:1017B000047B704780B483B000AF78600B467B80B9
:1017C0007B887A6813441B68002B14BF0123002315
:1017D000DBB218460C37BD465DF8047B704700BF8E
:1017E00080B483B000AF786039607B68D3F80022A2
:1017F0003B68DB431A407B68C3F800220C37BD46C8
:101800005DF8047B704700BF80B485B000AF78609E
:101810007B68D3F88034FB607B68FA68C3F8802467
:10182000FB6818461437BD465DF8047B704700BF5F
:1018300080B483B000AF78607B68D3F84C3518462D
:101840000C37BD465DF8047B704700BF80B483B0A1
:1018500000AF78607B68D3F83C3518460C37BD463E
:101860005DF8047B704700BF80B582B000AF0E48C2
:101870004FF48E71FFF702FF0C4B9B680B4A928A64
:1018800092B213441B78FB71084B9B8A9BB20133C5
:101890009AB2064B9A82FB7903481946FFF75AFF22
:1018A0000837BD4680BD00BF00200040C024002096
:1018B00098B500AF124BDB7D002B08D111484FF4D7
:1018C0008471FFF7DBFE0F48FFF736FF16E00D4887
:1018D0004FF48471FFF7D2FE094BDB68084A527E51
:1018E000D2B29C180748FFF727FF03462370044B2A
:1018F0005B7EDBB20133DAB2014B5A7698BD00BF92
:10190000C02400200020004080B586B000AF034610
:101910003960FB7101233B72FB793B743B68FB60D0
:10192000054B5B68044A126807F108010846114636
:1019300098471837BD4680BDC024002080B586B0CA
:1019400000AF0346FB7100233B72FB793B74094BEC
:101950009B68FB60074B00229A75064B5B68054A43
:10196000126807F108010846114698471837BD4626
:1019700080BD00BFC024002080B586B000AF6E4897
:101980004FF40071FFF7A0FE0346002B38D06A48E1
:101990004FF49271FFF782FE0346002B30D0664869
:1019A0004FF49271FFF76AFE63484FF40171FFF73D
:1019B000A1FE624B9B7E83F00103DBB2002B03D0C0
:1019C0005D480421FFF7D6FE02233B705A48FFF71B
:1019D0009FFE0346FB60594BDB7D3B72574BDB6838
:1019E0007B60564B0022DA75544B00221A76534B1B
:1019F0005B68524A1268394608461146984751E0DA
:101A00004D480421FFF760FE0346002B4AD04A48A8
:101A10004FF48471FFF742FE0346002B42D0FFF7DC
:101A200047FF464BDA7D454B5B7EDBB29A4239D1AC
:101A3000424B1B7E002B19D0404BDB687B613F4B38
:101A40005B7EFB743D4B1A7E3C4BDA753B4B1B694E
:101A50003A4AD360394B00221A76384B00225A7624
:101A6000FB7C18467969FFF74FFF1BE0334B9B7EE9
:101A700083F00103DBB2002B03D02F480421FFF7D2
:101A800079FE2D484FF40171FFF734FE2B4B0022F5
:101A9000DA752A4B5B7EDAB2284BDB6810461946B2
:101AA000FFF732FF24484FF48E71FFF7F7FD03462E
:101AB000002B18D0214B9B8A9AB2204B9B7D9BB266
:101AC0009A4202D2FFF7D0FE0DE01B484FF48E7110
